{
  "_format": "hh-sol-artifact-1",
  "contractName": "SmartBnb",
  "sourceName": "contracts/SmartBnb.sol",
  "abi": [
    {
      "inputs": [
        {
          "internalType": "uint256",
          "name": "_listingFee",
          "type": "uint256"
        }
      ],
      "stateMutability": "nonpayable",
      "type": "constructor"
    },
    {
      "anonymous": false,
      "inputs": [
        {
          "indexed": true,
          "internalType": "address",
          "name": "previousOwner",
          "type": "address"
        },
        {
          "indexed": true,
          "internalType": "address",
          "name": "newOwner",
          "type": "address"
        }
      ],
      "name": "OwnershipTransferred",
      "type": "event"
    },
    {
      "inputs": [
        {
          "internalType": "string",
          "name": "_name",
          "type": "string"
        },
        {
          "internalType": "string",
          "name": "_city",
          "type": "string"
        },
        {
          "internalType": "string",
          "name": "_lat",
          "type": "string"
        },
        {
          "internalType": "string",
          "name": "_long",
          "type": "string"
        },
        {
          "internalType": "string",
          "name": "_description",
          "type": "string"
        },
        {
          "internalType": "string",
          "name": "_imgUrl",
          "type": "string"
        },
        {
          "internalType": "uint256",
          "name": "_maxGuests",
          "type": "uint256"
        },
        {
          "internalType": "uint256",
          "name": "_pricePerDay",
          "type": "uint256"
        }
      ],
      "name": "addRental",
      "outputs": [],
      "stateMutability": "payable",
      "type": "function"
    },
    {
      "inputs": [
        {
          "internalType": "uint256",
          "name": "_id",
          "type": "uint256"
        },
        {
          "internalType": "uint256",
          "name": "_fromDateTimestamp",
          "type": "uint256"
        },
        {
          "internalType": "uint256",
          "name": "_toDateTimestamp",
          "type": "uint256"
        }
      ],
      "name": "bookDates",
      "outputs": [],
      "stateMutability": "payable",
      "type": "function"
    },
    {
      "inputs": [
        {
          "internalType": "uint256",
          "name": "_newFee",
          "type": "uint256"
        }
      ],
      "name": "changeListingFee",
      "outputs": [],
      "stateMutability": "nonpayable",
      "type": "function"
    },
    {
      "inputs": [
        {
          "internalType": "uint256",
          "name": "_id",
          "type": "uint256"
        }
      ],
      "name": "getRentalBookings",
      "outputs": [
        {
          "components": [
            {
              "internalType": "address",
              "name": "renter",
              "type": "address"
            },
            {
              "internalType": "uint256",
              "name": "fromTimestamp",
              "type": "uint256"
            },
            {
              "internalType": "uint256",
              "name": "toTimestamp",
              "type": "uint256"
            }
          ],
          "internalType": "struct SmartBnb.Booking[]",
          "name": "",
          "type": "tuple[]"
        }
      ],
      "stateMutability": "view",
      "type": "function"
    },
    {
      "inputs": [
        {
          "internalType": "uint256",
          "name": "_id",
          "type": "uint256"
        }
      ],
      "name": "getRentalInfo",
      "outputs": [
        {
          "components": [
            {
              "internalType": "uint256",
              "name": "id",
              "type": "uint256"
            },
            {
              "internalType": "address",
              "name": "owner",
              "type": "address"
            },
            {
              "internalType": "string",
              "name": "name",
              "type": "string"
            },
            {
              "internalType": "string",
              "name": "city",
              "type": "string"
            },
            {
              "internalType": "string",
              "name": "lat",
              "type": "string"
            },
            {
              "internalType": "string",
              "name": "long",
              "type": "string"
            },
            {
              "internalType": "string",
              "name": "description",
              "type": "string"
            },
            {
              "internalType": "string",
              "name": "imgUrl",
              "type": "string"
            },
            {
              "internalType": "uint256",
              "name": "maxGuests",
              "type": "uint256"
            },
            {
              "internalType": "uint256",
              "name": "pricePerDay",
              "type": "uint256"
            }
          ],
          "internalType": "struct SmartBnb.RentalInfo",
          "name": "",
          "type": "tuple"
        }
      ],
      "stateMutability": "view",
      "type": "function"
    },
    {
      "inputs": [],
      "name": "getRentals",
      "outputs": [
        {
          "components": [
            {
              "internalType": "uint256",
              "name": "id",
              "type": "uint256"
            },
            {
              "internalType": "address",
              "name": "owner",
              "type": "address"
            },
            {
              "internalType": "string",
              "name": "name",
              "type": "string"
            },
            {
              "internalType": "string",
              "name": "city",
              "type": "string"
            },
            {
              "internalType": "string",
              "name": "lat",
              "type": "string"
            },
            {
              "internalType": "string",
              "name": "long",
              "type": "string"
            },
            {
              "internalType": "string",
              "name": "description",
              "type": "string"
            },
            {
              "internalType": "string",
              "name": "imgUrl",
              "type": "string"
            },
            {
              "internalType": "uint256",
              "name": "maxGuests",
              "type": "uint256"
            },
            {
              "internalType": "uint256",
              "name": "pricePerDay",
              "type": "uint256"
            }
          ],
          "internalType": "struct SmartBnb.RentalInfo[]",
          "name": "",
          "type": "tuple[]"
        }
      ],
      "stateMutability": "view",
      "type": "function"
    },
    {
      "inputs": [],
      "name": "listingFee",
      "outputs": [
        {
          "internalType": "uint256",
          "name": "",
          "type": "uint256"
        }
      ],
      "stateMutability": "view",
      "type": "function"
    },
    {
      "inputs": [],
      "name": "owner",
      "outputs": [
        {
          "internalType": "address",
          "name": "",
          "type": "address"
        }
      ],
      "stateMutability": "view",
      "type": "function"
    },
    {
      "inputs": [],
      "name": "renounceOwnership",
      "outputs": [],
      "stateMutability": "nonpayable",
      "type": "function"
    },
    {
      "inputs": [
        {
          "internalType": "uint256",
          "name": "",
          "type": "uint256"
        }
      ],
      "name": "rentals",
      "outputs": [
        {
          "internalType": "uint256",
          "name": "id",
          "type": "uint256"
        },
        {
          "internalType": "address",
          "name": "owner",
          "type": "address"
        },
        {
          "internalType": "string",
          "name": "name",
          "type": "string"
        },
        {
          "internalType": "string",
          "name": "city",
          "type": "string"
        },
        {
          "internalType": "string",
          "name": "lat",
          "type": "string"
        },
        {
          "internalType": "string",
          "name": "long",
          "type": "string"
        },
        {
          "internalType": "string",
          "name": "description",
          "type": "string"
        },
        {
          "internalType": "string",
          "name": "imgUrl",
          "type": "string"
        },
        {
          "internalType": "uint256",
          "name": "maxGuests",
          "type": "uint256"
        },
        {
          "internalType": "uint256",
          "name": "pricePerDay",
          "type": "uint256"
        }
      ],
      "stateMutability": "view",
      "type": "function"
    },
    {
      "inputs": [
        {
          "internalType": "address",
          "name": "newOwner",
          "type": "address"
        }
      ],
      "name": "transferOwnership",
      "outputs": [],
      "stateMutability": "nonpayable",
      "type": "function"
    },
    {
      "inputs": [],
      "name": "withdrawBalance",
      "outputs": [],
      "stateMutability": "nonpayable",
      "type": "function"
    }
  ],
  "bytecode": "0x60806040523480156200001157600080fd5b50604051620021d7380380620021d7833981016040819052620000349162000098565b6200003f3362000048565b600155620000b2565b600080546001600160a01b038381166001600160a01b0319831681178455604051919092169283917f8be0079c531659141344cd1fd0a4f28419497f9722a3daafe3b4186f6b6457e09190a35050565b600060208284031215620000ab57600080fd5b5051919050565b61211580620000c26000396000f3fe6080604052600436106100a75760003560e01c806377f25f6f1161006457806377f25f6f146101675780637eb89724146101875780638da5cb5b146101b45780639982aaeb146101dc578063af94a1d1146101ef578063f2fde38b1461022557600080fd5b806327dc3fbd146100ac57806346e6e5fb146100e25780635ea5da20146100f75780635fd8c710146101195780636a1b7ecc1461012e578063715018a614610152575b600080fd5b3480156100b857600080fd5b506100cc6100c73660046119f1565b610245565b6040516100d99190611b2f565b60405180910390f35b6100f56100f0366004611b42565b6106be565b005b34801561010357600080fd5b5061010c610cb7565b6040516100d99190611b6e565b34801561012557600080fd5b506100f56110b7565b34801561013a57600080fd5b5061014460015481565b6040519081526020016100d9565b34801561015e57600080fd5b506100f561112a565b34801561017357600080fd5b506100f56101823660046119f1565b61113e565b34801561019357600080fd5b506101a76101a23660046119f1565b61114b565b6040516100d99190611bd0565b3480156101c057600080fd5b506000546040516001600160a01b0390911681526020016100d9565b6100f56101ea366004611cd5565b6111f9565b3480156101fb57600080fd5b5061020f61020a3660046119f1565b6113e6565b6040516100d99a99989796959493929190611ddf565b34801561023157600080fd5b506100f5610240366004611e8a565b611781565b6102a46040518061014001604052806000815260200160006001600160a01b0316815260200160608152602001606081526020016060815260200160608152602001606081526020016060815260200160008152602001600081525090565b8160025481106102cf5760405162461bcd60e51b81526004016102c690611eb3565b60405180910390fd5b600383815481106102e2576102e2611ed7565b90600052602060002090600a020160405180610140016040529081600082015481526020016001820160009054906101000a90046001600160a01b03166001600160a01b03166001600160a01b0316815260200160028201805461034590611eed565b80601f016020809104026020016040519081016040528092919081815260200182805461037190611eed565b80156103be5780601f10610393576101008083540402835291602001916103be565b820191906000526020600020905b8154815290600101906020018083116103a157829003601f168201915b505050505081526020016003820180546103d790611eed565b80601f016020809104026020016040519081016040528092919081815260200182805461040390611eed565b80156104505780601f1061042557610100808354040283529160200191610450565b820191906000526020600020905b81548152906001019060200180831161043357829003601f168201915b5050505050815260200160048201805461046990611eed565b80601f016020809104026020016040519081016040528092919081815260200182805461049590611eed565b80156104e25780601f106104b7576101008083540402835291602001916104e2565b820191906000526020600020905b8154815290600101906020018083116104c557829003601f168201915b505050505081526020016005820180546104fb90611eed565b80601f016020809104026020016040519081016040528092919081815260200182805461052790611eed565b80156105745780601f1061054957610100808354040283529160200191610574565b820191906000526020600020905b81548152906001019060200180831161055757829003601f168201915b5050505050815260200160068201805461058d90611eed565b80601f01602080910402602001604051908101604052809291908181526020018280546105b990611eed565b80156106065780601f106105db57610100808354040283529160200191610606565b820191906000526020600020905b8154815290600101906020018083116105e957829003601f168201915b5050505050815260200160078201805461061f90611eed565b80601f016020809104026020016040519081016040528092919081815260200182805461064b90611eed565b80156106985780601f1061066d57610100808354040283529160200191610698565b820191906000526020600020905b81548152906001019060200180831161067b57829003601f168201915b505050505081526020016008820154815260200160098201548152505091505b50919050565b8260025481106106e05760405162461bcd60e51b81526004016102c690611eb3565b6000600385815481106106f5576106f5611ed7565b90600052602060002090600a020160405180610140016040529081600082015481526020016001820160009054906101000a90046001600160a01b03166001600160a01b03166001600160a01b0316815260200160028201805461075890611eed565b80601f016020809104026020016040519081016040528092919081815260200182805461078490611eed565b80156107d15780601f106107a6576101008083540402835291602001916107d1565b820191906000526020600020905b8154815290600101906020018083116107b457829003601f168201915b505050505081526020016003820180546107ea90611eed565b80601f016020809104026020016040519081016040528092919081815260200182805461081690611eed565b80156108635780601f1061083857610100808354040283529160200191610863565b820191906000526020600020905b81548152906001019060200180831161084657829003601f168201915b5050505050815260200160048201805461087c90611eed565b80601f01602080910402602001604051908101604052809291908181526020018280546108a890611eed565b80156108f55780601f106108ca576101008083540402835291602001916108f5565b820191906000526020600020905b8154815290600101906020018083116108d857829003601f168201915b5050505050815260200160058201805461090e90611eed565b80601f016020809104026020016040519081016040528092919081815260200182805461093a90611eed565b80156109875780601f1061095c57610100808354040283529160200191610987565b820191906000526020600020905b81548152906001019060200180831161096a57829003601f168201915b505050505081526020016006820180546109a090611eed565b80601f01602080910402602001604051908101604052809291908181526020018280546109cc90611eed565b8015610a195780601f106109ee57610100808354040283529160200191610a19565b820191906000526020600020905b8154815290600101906020018083116109fc57829003601f168201915b50505050508152602001600782018054610a3290611eed565b80601f0160208091040260200160405190810160405280929190818152602001828054610a5e90611eed565b8015610aab5780601f10610a8057610100808354040283529160200191610aab565b820191906000526020600020905b815481529060010190602001808311610a8e57829003601f168201915b5050509183525050600882015460208201526009909101546040909101529050600062015180610adb8686611f37565b610ae59190611f50565b90506001811015610b385760405162461bcd60e51b815260206004820152601a60248201527f43616e277420626f6f6b206c657373207468616e20312064617900000000000060448201526064016102c6565b3481836101200151610b4a9190611f72565b14610b8d5760405162461bcd60e51b8152602060048201526013602482015272125b9cdd59999a58da595b9d08185b5bdd5b9d606a1b60448201526064016102c6565b610b988686866117f7565b15610bd65760405162461bcd60e51b815260206004820152600e60248201526d105b1c9958591e48189bdbdad95960921b60448201526064016102c6565b600086815260046020908152604080832081516060810183523381528084018a81528184018a81528354600180820186559488528688209351600390910290930180546001600160a01b0319166001600160a01b03948516178155915193820193909355915160029092019190915591850151905191169034908381818185875af1925050503d8060008114610c88576040519150601f19603f3d011682016040523d82523d6000602084013e610c8d565b606091505b5050905080610cae5760405162461bcd60e51b81526004016102c690611f89565b50505050505050565b60606003805480602002602001604051908101604052809291908181526020016000905b828210156110ae5760008481526020908190206040805161014081018252600a86029092018054835260018101546001600160a01b03169383019390935260028301805492939291840191610d2f90611eed565b80601f0160208091040260200160405190810160405280929190818152602001828054610d5b90611eed565b8015610da85780601f10610d7d57610100808354040283529160200191610da8565b820191906000526020600020905b815481529060010190602001808311610d8b57829003601f168201915b50505050508152602001600382018054610dc190611eed565b80601f0160208091040260200160405190810160405280929190818152602001828054610ded90611eed565b8015610e3a5780601f10610e0f57610100808354040283529160200191610e3a565b820191906000526020600020905b815481529060010190602001808311610e1d57829003601f168201915b50505050508152602001600482018054610e5390611eed565b80601f0160208091040260200160405190810160405280929190818152602001828054610e7f90611eed565b8015610ecc5780601f10610ea157610100808354040283529160200191610ecc565b820191906000526020600020905b815481529060010190602001808311610eaf57829003601f168201915b50505050508152602001600582018054610ee590611eed565b80601f0160208091040260200160405190810160405280929190818152602001828054610f1190611eed565b8015610f5e5780601f10610f3357610100808354040283529160200191610f5e565b820191906000526020600020905b815481529060010190602001808311610f4157829003601f168201915b50505050508152602001600682018054610f7790611eed565b80601f0160208091040260200160405190810160405280929190818152602001828054610fa390611eed565b8015610ff05780601f10610fc557610100808354040283529160200191610ff0565b820191906000526020600020905b815481529060010190602001808311610fd357829003601f168201915b5050505050815260200160078201805461100990611eed565b80601f016020809104026020016040519081016040528092919081815260200182805461103590611eed565b80156110825780601f1061105757610100808354040283529160200191611082565b820191906000526020600020905b81548152906001019060200180831161106557829003601f168201915b505050505081526020016008820154815260200160098201548152505081526020019060010190610cdb565b50505050905090565b6110bf611947565b604051600090339047908381818185875af1925050503d8060008114611101576040519150601f19603f3d011682016040523d82523d6000602084013e611106565b606091505b50509050806111275760405162461bcd60e51b81526004016102c690611f89565b50565b611132611947565b61113c60006119a1565b565b611146611947565b600155565b606081600254811061116f5760405162461bcd60e51b81526004016102c690611eb3565b600083815260046020908152604080832080548251818502810185019093528083529193909284015b828210156111ed576000848152602090819020604080516060810182526003860290920180546001600160a01b0316835260018082015484860152600290910154918301919091529083529092019101611198565b50505050915050919050565b60015434101561123e5760405162461bcd60e51b815260206004820152601060248201526f496e73756666696369656e742066656560801b60448201526064016102c6565b6040805161014081018252600254815233602082019081529181018a8152606082018a90526080820189905260a0820188905260c0820187905260e08201869052610100820185905261012082018490526003805460018101825560009190915282517fc2575a0e9e593c00f959f8c92f12db2869c3395a3b0502d05e2516446f71f85b600a90920291820190815593517fc2575a0e9e593c00f959f8c92f12db2869c3395a3b0502d05e2516446f71f85c820180546001600160a01b0319166001600160a01b0390921691909117905590519192839290917fc2575a0e9e593c00f959f8c92f12db2869c3395a3b0502d05e2516446f71f85d01906113449082612006565b50606082015160038201906113599082612006565b506080820151600482019061136e9082612006565b5060a082015160058201906113839082612006565b5060c082015160068201906113989082612006565b5060e082015160078201906113ad9082612006565b50610100820151600882015561012090910151600990910155600280549060006113d6836120c6565b9190505550505050505050505050565b600381815481106113f657600080fd5b60009182526020909120600a90910201805460018201546002830180549294506001600160a01b03909116929161142c90611eed565b80601f016020809104026020016040519081016040528092919081815260200182805461145890611eed565b80156114a55780601f1061147a576101008083540402835291602001916114a5565b820191906000526020600020905b81548152906001019060200180831161148857829003601f168201915b5050505050908060030180546114ba90611eed565b80601f01602080910402602001604051908101604052809291908181526020018280546114e690611eed565b80156115335780601f1061150857610100808354040283529160200191611533565b820191906000526020600020905b81548152906001019060200180831161151657829003601f168201915b50505050509080600401805461154890611eed565b80601f016020809104026020016040519081016040528092919081815260200182805461157490611eed565b80156115c15780601f10611596576101008083540402835291602001916115c1565b820191906000526020600020905b8154815290600101906020018083116115a457829003601f168201915b5050505050908060050180546115d690611eed565b80601f016020809104026020016040519081016040528092919081815260200182805461160290611eed565b801561164f5780601f106116245761010080835404028352916020019161164f565b820191906000526020600020905b81548152906001019060200180831161163257829003601f168201915b50505050509080600601805461166490611eed565b80601f016020809104026020016040519081016040528092919081815260200182805461169090611eed565b80156116dd5780601f106116b2576101008083540402835291602001916116dd565b820191906000526020600020905b8154815290600101906020018083116116c057829003601f168201915b5050505050908060070180546116f290611eed565b80601f016020809104026020016040519081016040528092919081815260200182805461171e90611eed565b801561176b5780601f106117405761010080835404028352916020019161176b565b820191906000526020600020905b81548152906001019060200180831161174e57829003601f168201915b505050505090806008015490806009015490508a565b611789611947565b6001600160a01b0381166117ee5760405162461bcd60e51b815260206004820152602660248201527f4f776e61626c653a206e6577206f776e657220697320746865207a65726f206160448201526564647265737360d01b60648201526084016102c6565b611127816119a1565b600083815260046020908152604080832080548251818502810185019093528083528493849084015b82821015611875576000848152602090819020604080516060810182526003860290920180546001600160a01b0316835260018082015484860152600290910154918301919091529083529092019101611820565b50505050905060005b81518110156119395781818151811061189957611899611ed7565b60200260200101516020015185101580156118d157508181815181106118c1576118c1611ed7565b6020026020010151604001518511155b8061192157508181815181106118e9576118e9611ed7565b6020026020010151602001518410158015611921575081818151811061191157611911611ed7565b6020026020010151604001518411155b1561193157600192505050611940565b60010161187e565b5060009150505b9392505050565b6000546001600160a01b0316331461113c5760405162461bcd60e51b815260206004820181905260248201527f4f776e61626c653a2063616c6c6572206973206e6f7420746865206f776e657260448201526064016102c6565b600080546001600160a01b038381166001600160a01b0319831681178455604051919092169283917f8be0079c531659141344cd1fd0a4f28419497f9722a3daafe3b4186f6b6457e09190a35050565b600060208284031215611a0357600080fd5b5035919050565b6000815180845260005b81811015611a3057602081850181015186830182015201611a14565b506000602082860101526020601f19601f83011685010191505092915050565b6000610140825184526020830151611a7360208601826001600160a01b03169052565b506040830151816040860152611a8b82860182611a0a565b91505060608301518482036060860152611aa58282611a0a565b91505060808301518482036080860152611abf8282611a0a565b91505060a083015184820360a0860152611ad98282611a0a565b91505060c083015184820360c0860152611af38282611a0a565b91505060e083015184820360e0860152611b0d8282611a0a565b6101008581015190870152610120948501519490950193909352509192915050565b6020815260006119406020830184611a50565b600080600060608486031215611b5757600080fd5b505081359360208301359350604090920135919050565b6000602080830181845280855180835260408601915060408160051b870101925083870160005b82811015611bc357603f19888603018452611bb1858351611a50565b94509285019290850190600101611b95565b5092979650505050505050565b602080825282518282018190526000919060409081850190868401855b82811015611c2557815180516001600160a01b0316855286810151878601528501518585015260609093019290850190600101611bed565b5091979650505050505050565b634e487b7160e01b600052604160045260246000fd5b600082601f830112611c5957600080fd5b813567ffffffffffffffff80821115611c7457611c74611c32565b604051601f8301601f19908116603f01168101908282118183101715611c9c57611c9c611c32565b81604052838152866020858801011115611cb557600080fd5b836020870160208301376000602085830101528094505050505092915050565b600080600080600080600080610100898b031215611cf257600080fd5b883567ffffffffffffffff80821115611d0a57600080fd5b611d168c838d01611c48565b995060208b0135915080821115611d2c57600080fd5b611d388c838d01611c48565b985060408b0135915080821115611d4e57600080fd5b611d5a8c838d01611c48565b975060608b0135915080821115611d7057600080fd5b611d7c8c838d01611c48565b965060808b0135915080821115611d9257600080fd5b611d9e8c838d01611c48565b955060a08b0135915080821115611db457600080fd5b50611dc18b828c01611c48565b93505060c0890135915060e089013590509295985092959890939650565b8a81526001600160a01b038a16602082015261014060408201819052600090611e0a8382018c611a0a565b90508281036060840152611e1e818b611a0a565b90508281036080840152611e32818a611a0a565b905082810360a0840152611e468189611a0a565b905082810360c0840152611e5a8188611a0a565b905082810360e0840152611e6e8187611a0a565b6101008401959095525050610120015298975050505050505050565b600060208284031215611e9c57600080fd5b81356001600160a01b038116811461194057600080fd5b6020808252600a9082015269125b9d985b1a59081a5960b21b604082015260600190565b634e487b7160e01b600052603260045260246000fd5b600181811c90821680611f0157607f821691505b6020821081036106b857634e487b7160e01b600052602260045260246000fd5b634e487b7160e01b600052601160045260246000fd5b81810381811115611f4a57611f4a611f21565b92915050565b600082611f6d57634e487b7160e01b600052601260045260246000fd5b500490565b8082028115828204841417611f4a57611f4a611f21565b6020808252601490820152732330b4b632b2103a379039b2b7321022ba3432b960611b604082015260600190565b601f82111561200157600081815260208120601f850160051c81016020861015611fde5750805b601f850160051c820191505b81811015611ffd57828155600101611fea565b5050505b505050565b815167ffffffffffffffff81111561202057612020611c32565b6120348161202e8454611eed565b84611fb7565b602080601f83116001811461206957600084156120515750858301515b600019600386901b1c1916600185901b178555611ffd565b600085815260208120601f198616915b8281101561209857888601518255948401946001909101908401612079565b50858210156120b65787850151600019600388901b60f8161c191681555b5050505050600190811b01905550565b6000600182016120d8576120d8611f21565b506001019056fea264697066735822122016b6be099847d2d15b7882dd1c5d20acda1eb9f774876898d5f5bfb8117a7a4a64736f6c63430008120033",
  "linkReferences": {},
  "deployedLinkReferences": {}
}