{
  "_format": "hh-sol-artifact-1",
  "contractName": "SmartBnb",
  "sourceName": "contracts/SmartBnb.sol",
  "abi": [
    {
      "inputs": [
        {
          "internalType": "uint256",
          "name": "_listingFee",
          "type": "uint256"
        }
      ],
      "stateMutability": "nonpayable",
      "type": "constructor"
    },
    {
      "anonymous": false,
      "inputs": [
        {
          "indexed": true,
          "internalType": "address",
          "name": "previousOwner",
          "type": "address"
        },
        {
          "indexed": true,
          "internalType": "address",
          "name": "newOwner",
          "type": "address"
        }
      ],
      "name": "OwnershipTransferred",
      "type": "event"
    },
    {
      "inputs": [
        {
          "internalType": "string",
          "name": "_name",
          "type": "string"
        },
        {
          "internalType": "string",
          "name": "_city",
          "type": "string"
        },
        {
          "internalType": "string",
          "name": "_lat",
          "type": "string"
        },
        {
          "internalType": "string",
          "name": "_long",
          "type": "string"
        },
        {
          "internalType": "string",
          "name": "_description",
          "type": "string"
        },
        {
          "internalType": "string",
          "name": "_imgUrl",
          "type": "string"
        },
        {
          "internalType": "uint256",
          "name": "_maxGuests",
          "type": "uint256"
        },
        {
          "internalType": "uint256",
          "name": "_pricePerDay",
          "type": "uint256"
        }
      ],
      "name": "addRental",
      "outputs": [],
      "stateMutability": "payable",
      "type": "function"
    },
    {
      "inputs": [
        {
          "internalType": "uint256",
          "name": "_id",
          "type": "uint256"
        },
        {
          "internalType": "uint256",
          "name": "_fromDateTimestamp",
          "type": "uint256"
        },
        {
          "internalType": "uint256",
          "name": "_toDateTimestamp",
          "type": "uint256"
        }
      ],
      "name": "bookDates",
      "outputs": [],
      "stateMutability": "payable",
      "type": "function"
    },
    {
      "inputs": [
        {
          "internalType": "uint256",
          "name": "_newFee",
          "type": "uint256"
        }
      ],
      "name": "changeListingFee",
      "outputs": [],
      "stateMutability": "nonpayable",
      "type": "function"
    },
    {
      "inputs": [
        {
          "internalType": "uint256",
          "name": "_id",
          "type": "uint256"
        }
      ],
      "name": "getRentalBookings",
      "outputs": [
        {
          "components": [
            {
              "internalType": "address",
              "name": "renter",
              "type": "address"
            },
            {
              "internalType": "uint256",
              "name": "fromTimestamp",
              "type": "uint256"
            },
            {
              "internalType": "uint256",
              "name": "toTimestamp",
              "type": "uint256"
            }
          ],
          "internalType": "struct SmartBnb.Booking[]",
          "name": "",
          "type": "tuple[]"
        }
      ],
      "stateMutability": "view",
      "type": "function"
    },
    {
      "inputs": [
        {
          "internalType": "uint256",
          "name": "_id",
          "type": "uint256"
        }
      ],
      "name": "getRentalInfo",
      "outputs": [
        {
          "components": [
            {
              "internalType": "uint256",
              "name": "id",
              "type": "uint256"
            },
            {
              "internalType": "address",
              "name": "owner",
              "type": "address"
            },
            {
              "internalType": "string",
              "name": "name",
              "type": "string"
            },
            {
              "internalType": "string",
              "name": "city",
              "type": "string"
            },
            {
              "internalType": "string",
              "name": "lat",
              "type": "string"
            },
            {
              "internalType": "string",
              "name": "long",
              "type": "string"
            },
            {
              "internalType": "string",
              "name": "description",
              "type": "string"
            },
            {
              "internalType": "string",
              "name": "imgUrl",
              "type": "string"
            },
            {
              "internalType": "uint256",
              "name": "maxGuests",
              "type": "uint256"
            },
            {
              "internalType": "uint256",
              "name": "pricePerDay",
              "type": "uint256"
            }
          ],
          "internalType": "struct SmartBnb.RentalInfo",
          "name": "",
          "type": "tuple"
        }
      ],
      "stateMutability": "view",
      "type": "function"
    },
    {
      "inputs": [],
      "name": "getRentals",
      "outputs": [
        {
          "components": [
            {
              "internalType": "uint256",
              "name": "id",
              "type": "uint256"
            },
            {
              "internalType": "address",
              "name": "owner",
              "type": "address"
            },
            {
              "internalType": "string",
              "name": "name",
              "type": "string"
            },
            {
              "internalType": "string",
              "name": "city",
              "type": "string"
            },
            {
              "internalType": "string",
              "name": "lat",
              "type": "string"
            },
            {
              "internalType": "string",
              "name": "long",
              "type": "string"
            },
            {
              "internalType": "string",
              "name": "description",
              "type": "string"
            },
            {
              "internalType": "string",
              "name": "imgUrl",
              "type": "string"
            },
            {
              "internalType": "uint256",
              "name": "maxGuests",
              "type": "uint256"
            },
            {
              "internalType": "uint256",
              "name": "pricePerDay",
              "type": "uint256"
            }
          ],
          "internalType": "struct SmartBnb.RentalInfo[]",
          "name": "",
          "type": "tuple[]"
        }
      ],
      "stateMutability": "view",
      "type": "function"
    },
    {
      "inputs": [],
      "name": "listingFee",
      "outputs": [
        {
          "internalType": "uint256",
          "name": "",
          "type": "uint256"
        }
      ],
      "stateMutability": "view",
      "type": "function"
    },
    {
      "inputs": [],
      "name": "owner",
      "outputs": [
        {
          "internalType": "address",
          "name": "",
          "type": "address"
        }
      ],
      "stateMutability": "view",
      "type": "function"
    },
    {
      "inputs": [],
      "name": "renounceOwnership",
      "outputs": [],
      "stateMutability": "nonpayable",
      "type": "function"
    },
    {
      "inputs": [],
      "name": "rentalIds",
      "outputs": [
        {
          "internalType": "uint256",
          "name": "",
          "type": "uint256"
        }
      ],
      "stateMutability": "view",
      "type": "function"
    },
    {
      "inputs": [
        {
          "internalType": "uint256",
          "name": "",
          "type": "uint256"
        }
      ],
      "name": "rentals",
      "outputs": [
        {
          "internalType": "uint256",
          "name": "id",
          "type": "uint256"
        },
        {
          "internalType": "address",
          "name": "owner",
          "type": "address"
        },
        {
          "internalType": "string",
          "name": "name",
          "type": "string"
        },
        {
          "internalType": "string",
          "name": "city",
          "type": "string"
        },
        {
          "internalType": "string",
          "name": "lat",
          "type": "string"
        },
        {
          "internalType": "string",
          "name": "long",
          "type": "string"
        },
        {
          "internalType": "string",
          "name": "description",
          "type": "string"
        },
        {
          "internalType": "string",
          "name": "imgUrl",
          "type": "string"
        },
        {
          "internalType": "uint256",
          "name": "maxGuests",
          "type": "uint256"
        },
        {
          "internalType": "uint256",
          "name": "pricePerDay",
          "type": "uint256"
        }
      ],
      "stateMutability": "view",
      "type": "function"
    },
    {
      "inputs": [
        {
          "internalType": "address",
          "name": "newOwner",
          "type": "address"
        }
      ],
      "name": "transferOwnership",
      "outputs": [],
      "stateMutability": "nonpayable",
      "type": "function"
    },
    {
      "inputs": [],
      "name": "withdrawBalance",
      "outputs": [],
      "stateMutability": "nonpayable",
      "type": "function"
    }
  ],
  "bytecode": "0x60806040523480156200001157600080fd5b506040516200222838038062002228833981016040819052620000349162000098565b6200003f3362000048565b600155620000b2565b600080546001600160a01b038381166001600160a01b0319831681178455604051919092169283917f8be0079c531659141344cd1fd0a4f28419497f9722a3daafe3b4186f6b6457e09190a35050565b600060208284031215620000ab57600080fd5b5051919050565b61216680620000c26000396000f3fe6080604052600436106100c25760003560e01c8063715018a61161007f5780638da5cb5b116100595780638da5cb5b146101e55780639982aaeb1461020d578063af94a1d114610220578063f2fde38b1461025657600080fd5b8063715018a61461018357806377f25f6f146101985780637eb89724146101b857600080fd5b806327dc3fbd146100c75780633421a764146100fd57806346e6e5fb146101215780635ea5da20146101365780635fd8c710146101585780636a1b7ecc1461016d575b600080fd5b3480156100d357600080fd5b506100e76100e2366004611a70565b610276565b6040516100f49190611bae565b60405180910390f35b34801561010957600080fd5b5061011360025481565b6040519081526020016100f4565b61013461012f366004611bc1565b6106ef565b005b34801561014257600080fd5b5061014b610d0f565b6040516100f49190611bed565b34801561016457600080fd5b5061013461110f565b34801561017957600080fd5b5061011360015481565b34801561018f57600080fd5b506101346111a9565b3480156101a457600080fd5b506101346101b3366004611a70565b6111bd565b3480156101c457600080fd5b506101d86101d3366004611a70565b6111ca565b6040516100f49190611c4f565b3480156101f157600080fd5b506000546040516001600160a01b0390911681526020016100f4565b61013461021b366004611d54565b611278565b34801561022c57600080fd5b5061024061023b366004611a70565b611465565b6040516100f49a99989796959493929190611e5e565b34801561026257600080fd5b50610134610271366004611f09565b611800565b6102d56040518061014001604052806000815260200160006001600160a01b0316815260200160608152602001606081526020016060815260200160608152602001606081526020016060815260200160008152602001600081525090565b8160025481106103005760405162461bcd60e51b81526004016102f790611f32565b60405180910390fd5b6003838154811061031357610313611f56565b90600052602060002090600a020160405180610140016040529081600082015481526020016001820160009054906101000a90046001600160a01b03166001600160a01b03166001600160a01b0316815260200160028201805461037690611f6c565b80601f01602080910402602001604051908101604052809291908181526020018280546103a290611f6c565b80156103ef5780601f106103c4576101008083540402835291602001916103ef565b820191906000526020600020905b8154815290600101906020018083116103d257829003601f168201915b5050505050815260200160038201805461040890611f6c565b80601f016020809104026020016040519081016040528092919081815260200182805461043490611f6c565b80156104815780601f1061045657610100808354040283529160200191610481565b820191906000526020600020905b81548152906001019060200180831161046457829003601f168201915b5050505050815260200160048201805461049a90611f6c565b80601f01602080910402602001604051908101604052809291908181526020018280546104c690611f6c565b80156105135780601f106104e857610100808354040283529160200191610513565b820191906000526020600020905b8154815290600101906020018083116104f657829003601f168201915b5050505050815260200160058201805461052c90611f6c565b80601f016020809104026020016040519081016040528092919081815260200182805461055890611f6c565b80156105a55780601f1061057a576101008083540402835291602001916105a5565b820191906000526020600020905b81548152906001019060200180831161058857829003601f168201915b505050505081526020016006820180546105be90611f6c565b80601f01602080910402602001604051908101604052809291908181526020018280546105ea90611f6c565b80156106375780601f1061060c57610100808354040283529160200191610637565b820191906000526020600020905b81548152906001019060200180831161061a57829003601f168201915b5050505050815260200160078201805461065090611f6c565b80601f016020809104026020016040519081016040528092919081815260200182805461067c90611f6c565b80156106c95780601f1061069e576101008083540402835291602001916106c9565b820191906000526020600020905b8154815290600101906020018083116106ac57829003601f168201915b505050505081526020016008820154815260200160098201548152505091505b50919050565b8260025481106107115760405162461bcd60e51b81526004016102f790611f32565b60006003858154811061072657610726611f56565b90600052602060002090600a020160405180610140016040529081600082015481526020016001820160009054906101000a90046001600160a01b03166001600160a01b03166001600160a01b0316815260200160028201805461078990611f6c565b80601f01602080910402602001604051908101604052809291908181526020018280546107b590611f6c565b80156108025780601f106107d757610100808354040283529160200191610802565b820191906000526020600020905b8154815290600101906020018083116107e557829003601f168201915b5050505050815260200160038201805461081b90611f6c565b80601f016020809104026020016040519081016040528092919081815260200182805461084790611f6c565b80156108945780601f1061086957610100808354040283529160200191610894565b820191906000526020600020905b81548152906001019060200180831161087757829003601f168201915b505050505081526020016004820180546108ad90611f6c565b80601f01602080910402602001604051908101604052809291908181526020018280546108d990611f6c565b80156109265780601f106108fb57610100808354040283529160200191610926565b820191906000526020600020905b81548152906001019060200180831161090957829003601f168201915b5050505050815260200160058201805461093f90611f6c565b80601f016020809104026020016040519081016040528092919081815260200182805461096b90611f6c565b80156109b85780601f1061098d576101008083540402835291602001916109b8565b820191906000526020600020905b81548152906001019060200180831161099b57829003601f168201915b505050505081526020016006820180546109d190611f6c565b80601f01602080910402602001604051908101604052809291908181526020018280546109fd90611f6c565b8015610a4a5780601f10610a1f57610100808354040283529160200191610a4a565b820191906000526020600020905b815481529060010190602001808311610a2d57829003601f168201915b50505050508152602001600782018054610a6390611f6c565b80601f0160208091040260200160405190810160405280929190818152602001828054610a8f90611f6c565b8015610adc5780601f10610ab157610100808354040283529160200191610adc565b820191906000526020600020905b815481529060010190602001808311610abf57829003601f168201915b5050509183525050600882015460208201526009909101546040909101529050600062015180610b0c8686611fb6565b610b169190611fcf565b90506001811015610b695760405162461bcd60e51b815260206004820152601a60248201527f43616e277420626f6f6b206c657373207468616e20312064617900000000000060448201526064016102f7565b3481836101200151610b7b9190611ff1565b14610bbe5760405162461bcd60e51b8152602060048201526013602482015272125b9cdd59999a58da595b9d08185b5bdd5b9d606a1b60448201526064016102f7565b610bc9868686611876565b15610c075760405162461bcd60e51b815260206004820152600e60248201526d105b1c9958591e48189bdbdad95960921b60448201526064016102f7565b600086815260046020908152604080832081516060810183523381528084018a81528184018a81528354600180820186559488528688209351600390910290930180546001600160a01b0319166001600160a01b03948516178155915193820193909355915160029092019190915591850151905191169034908381818185875af1925050503d8060008114610cb9576040519150601f19603f3d011682016040523d82523d6000602084013e610cbe565b606091505b5050905080610d065760405162461bcd60e51b81526020600482015260146024820152732330b4b632b2103a379039b2b7321022ba3432b960611b60448201526064016102f7565b50505050505050565b60606003805480602002602001604051908101604052809291908181526020016000905b828210156111065760008481526020908190206040805161014081018252600a86029092018054835260018101546001600160a01b03169383019390935260028301805492939291840191610d8790611f6c565b80601f0160208091040260200160405190810160405280929190818152602001828054610db390611f6c565b8015610e005780601f10610dd557610100808354040283529160200191610e00565b820191906000526020600020905b815481529060010190602001808311610de357829003601f168201915b50505050508152602001600382018054610e1990611f6c565b80601f0160208091040260200160405190810160405280929190818152602001828054610e4590611f6c565b8015610e925780601f10610e6757610100808354040283529160200191610e92565b820191906000526020600020905b815481529060010190602001808311610e7557829003601f168201915b50505050508152602001600482018054610eab90611f6c565b80601f0160208091040260200160405190810160405280929190818152602001828054610ed790611f6c565b8015610f245780601f10610ef957610100808354040283529160200191610f24565b820191906000526020600020905b815481529060010190602001808311610f0757829003601f168201915b50505050508152602001600582018054610f3d90611f6c565b80601f0160208091040260200160405190810160405280929190818152602001828054610f6990611f6c565b8015610fb65780601f10610f8b57610100808354040283529160200191610fb6565b820191906000526020600020905b815481529060010190602001808311610f9957829003601f168201915b50505050508152602001600682018054610fcf90611f6c565b80601f0160208091040260200160405190810160405280929190818152602001828054610ffb90611f6c565b80156110485780601f1061101d57610100808354040283529160200191611048565b820191906000526020600020905b81548152906001019060200180831161102b57829003601f168201915b5050505050815260200160078201805461106190611f6c565b80601f016020809104026020016040519081016040528092919081815260200182805461108d90611f6c565b80156110da5780601f106110af576101008083540402835291602001916110da565b820191906000526020600020905b8154815290600101906020018083116110bd57829003601f168201915b505050505081526020016008820154815260200160098201548152505081526020019060010190610d33565b50505050905090565b6111176119c6565b604051600090339047908381818185875af1925050503d8060008114611159576040519150601f19603f3d011682016040523d82523d6000602084013e61115e565b606091505b50509050806111a65760405162461bcd60e51b81526020600482015260146024820152732330b4b632b2103a379039b2b7321022ba3432b960611b60448201526064016102f7565b50565b6111b16119c6565b6111bb6000611a20565b565b6111c56119c6565b600155565b60608160025481106111ee5760405162461bcd60e51b81526004016102f790611f32565b600083815260046020908152604080832080548251818502810185019093528083529193909284015b8282101561126c576000848152602090819020604080516060810182526003860290920180546001600160a01b0316835260018082015484860152600290910154918301919091529083529092019101611217565b50505050915050919050565b6001543410156112bd5760405162461bcd60e51b815260206004820152601060248201526f496e73756666696369656e742066656560801b60448201526064016102f7565b6040805161014081018252600254815233602082019081529181018a8152606082018a90526080820189905260a0820188905260c0820187905260e08201869052610100820185905261012082018490526003805460018101825560009190915282517fc2575a0e9e593c00f959f8c92f12db2869c3395a3b0502d05e2516446f71f85b600a90920291820190815593517fc2575a0e9e593c00f959f8c92f12db2869c3395a3b0502d05e2516446f71f85c820180546001600160a01b0319166001600160a01b0390921691909117905590519192839290917fc2575a0e9e593c00f959f8c92f12db2869c3395a3b0502d05e2516446f71f85d01906113c39082612057565b50606082015160038201906113d89082612057565b50608082015160048201906113ed9082612057565b5060a082015160058201906114029082612057565b5060c082015160068201906114179082612057565b5060e0820151600782019061142c9082612057565b506101008201516008820155610120909101516009909101556002805490600061145583612117565b9190505550505050505050505050565b6003818154811061147557600080fd5b60009182526020909120600a90910201805460018201546002830180549294506001600160a01b0390911692916114ab90611f6c565b80601f01602080910402602001604051908101604052809291908181526020018280546114d790611f6c565b80156115245780601f106114f957610100808354040283529160200191611524565b820191906000526020600020905b81548152906001019060200180831161150757829003601f168201915b50505050509080600301805461153990611f6c565b80601f016020809104026020016040519081016040528092919081815260200182805461156590611f6c565b80156115b25780601f10611587576101008083540402835291602001916115b2565b820191906000526020600020905b81548152906001019060200180831161159557829003601f168201915b5050505050908060040180546115c790611f6c565b80601f01602080910402602001604051908101604052809291908181526020018280546115f390611f6c565b80156116405780601f1061161557610100808354040283529160200191611640565b820191906000526020600020905b81548152906001019060200180831161162357829003601f168201915b50505050509080600501805461165590611f6c565b80601f016020809104026020016040519081016040528092919081815260200182805461168190611f6c565b80156116ce5780601f106116a3576101008083540402835291602001916116ce565b820191906000526020600020905b8154815290600101906020018083116116b157829003601f168201915b5050505050908060060180546116e390611f6c565b80601f016020809104026020016040519081016040528092919081815260200182805461170f90611f6c565b801561175c5780601f106117315761010080835404028352916020019161175c565b820191906000526020600020905b81548152906001019060200180831161173f57829003601f168201915b50505050509080600701805461177190611f6c565b80601f016020809104026020016040519081016040528092919081815260200182805461179d90611f6c565b80156117ea5780601f106117bf576101008083540402835291602001916117ea565b820191906000526020600020905b8154815290600101906020018083116117cd57829003601f168201915b505050505090806008015490806009015490508a565b6118086119c6565b6001600160a01b03811661186d5760405162461bcd60e51b815260206004820152602660248201527f4f776e61626c653a206e6577206f776e657220697320746865207a65726f206160448201526564647265737360d01b60648201526084016102f7565b6111a681611a20565b600083815260046020908152604080832080548251818502810185019093528083528493849084015b828210156118f4576000848152602090819020604080516060810182526003860290920180546001600160a01b031683526001808201548486015260029091015491830191909152908352909201910161189f565b50505050905060005b81518110156119b85781818151811061191857611918611f56565b6020026020010151602001518510158015611950575081818151811061194057611940611f56565b6020026020010151604001518511155b806119a0575081818151811061196857611968611f56565b60200260200101516020015184101580156119a0575081818151811061199057611990611f56565b6020026020010151604001518411155b156119b0576001925050506119bf565b6001016118fd565b5060009150505b9392505050565b6000546001600160a01b031633146111bb5760405162461bcd60e51b815260206004820181905260248201527f4f776e61626c653a2063616c6c6572206973206e6f7420746865206f776e657260448201526064016102f7565b600080546001600160a01b038381166001600160a01b0319831681178455604051919092169283917f8be0079c531659141344cd1fd0a4f28419497f9722a3daafe3b4186f6b6457e09190a35050565b600060208284031215611a8257600080fd5b5035919050565b6000815180845260005b81811015611aaf57602081850181015186830182015201611a93565b506000602082860101526020601f19601f83011685010191505092915050565b6000610140825184526020830151611af260208601826001600160a01b03169052565b506040830151816040860152611b0a82860182611a89565b91505060608301518482036060860152611b248282611a89565b91505060808301518482036080860152611b3e8282611a89565b91505060a083015184820360a0860152611b588282611a89565b91505060c083015184820360c0860152611b728282611a89565b91505060e083015184820360e0860152611b8c8282611a89565b6101008581015190870152610120948501519490950193909352509192915050565b6020815260006119bf6020830184611acf565b600080600060608486031215611bd657600080fd5b505081359360208301359350604090920135919050565b6000602080830181845280855180835260408601915060408160051b870101925083870160005b82811015611c4257603f19888603018452611c30858351611acf565b94509285019290850190600101611c14565b5092979650505050505050565b602080825282518282018190526000919060409081850190868401855b82811015611ca457815180516001600160a01b0316855286810151878601528501518585015260609093019290850190600101611c6c565b5091979650505050505050565b634e487b7160e01b600052604160045260246000fd5b600082601f830112611cd857600080fd5b813567ffffffffffffffff80821115611cf357611cf3611cb1565b604051601f8301601f19908116603f01168101908282118183101715611d1b57611d1b611cb1565b81604052838152866020858801011115611d3457600080fd5b836020870160208301376000602085830101528094505050505092915050565b600080600080600080600080610100898b031215611d7157600080fd5b883567ffffffffffffffff80821115611d8957600080fd5b611d958c838d01611cc7565b995060208b0135915080821115611dab57600080fd5b611db78c838d01611cc7565b985060408b0135915080821115611dcd57600080fd5b611dd98c838d01611cc7565b975060608b0135915080821115611def57600080fd5b611dfb8c838d01611cc7565b965060808b0135915080821115611e1157600080fd5b611e1d8c838d01611cc7565b955060a08b0135915080821115611e3357600080fd5b50611e408b828c01611cc7565b93505060c0890135915060e089013590509295985092959890939650565b8a81526001600160a01b038a16602082015261014060408201819052600090611e898382018c611a89565b90508281036060840152611e9d818b611a89565b90508281036080840152611eb1818a611a89565b905082810360a0840152611ec58189611a89565b905082810360c0840152611ed98188611a89565b905082810360e0840152611eed8187611a89565b6101008401959095525050610120015298975050505050505050565b600060208284031215611f1b57600080fd5b81356001600160a01b03811681146119bf57600080fd5b6020808252600a9082015269125b9d985b1a59081a5960b21b604082015260600190565b634e487b7160e01b600052603260045260246000fd5b600181811c90821680611f8057607f821691505b6020821081036106e957634e487b7160e01b600052602260045260246000fd5b634e487b7160e01b600052601160045260246000fd5b81810381811115611fc957611fc9611fa0565b92915050565b600082611fec57634e487b7160e01b600052601260045260246000fd5b500490565b8082028115828204841417611fc957611fc9611fa0565b601f82111561205257600081815260208120601f850160051c8101602086101561202f5750805b601f850160051c820191505b8181101561204e5782815560010161203b565b5050505b505050565b815167ffffffffffffffff81111561207157612071611cb1565b6120858161207f8454611f6c565b84612008565b602080601f8311600181146120ba57600084156120a25750858301515b600019600386901b1c1916600185901b17855561204e565b600085815260208120601f198616915b828110156120e9578886015182559484019460019091019084016120ca565b50858210156121075787850151600019600388901b60f8161c191681555b5050505050600190811b01905550565b60006001820161212957612129611fa0565b506001019056fea2646970667358221220a3078ca304e5f45398c9320e5c6afa40a6b89d9ada1fcf454a4e993a545702c764736f6c63430008120033",
  "linkReferences": {},
  "deployedLinkReferences": {}
}